:020000040800F2
:10000000981B0020DD010008F5220008ED22000801
:10001000F12200088D1A0008FD2A000800000000E7
:10002000000000000000000000000000252600087D
:10003000C11A000800000000592400081127000818
:10004000F7010008F7010008F7010008F7010008B0
:10005000F7010008F7010008C31A0008F7010008BB
:10006000F7010008F7010008F7010008F701000890
:10007000F7010008F7010008F7010008F701000880
:10008000F7010008F7010008F70100080000000070
:10009000000000000000000000000000F701000860
:1000A000F7010008F7010008F7010008F701000850
:1000B000F7010008F7010008F7010008F701000840
:1000C000F7010008F7010008F7010008F701000830
:1000D000F701000879270008AD2700083928000833
:1000E000F7010008F7010008F70100080000000010
:1000F0000000000000000000000000000000000000
:1001000000000000000000000000000000000000EF
:100110000000000000000000F7010008F7010008DF
:1001200000F002F800F04AF80AA090E8000C8244BF
:100130008344AAF10107DA4501D100F03FF8AFF29C
:10014000090EBAE80F0013F0010F18BFFB1A43F0B5
:10015000010318473C7700005C770000103A24BF89
:1001600078C878C1FAD8520724BF30C830C144BF1C
:1001700004680C607047000000230024002500265E
:10018000103A28BF78C1FBD8520728BF30C148BFFA
:100190000B607047002070471FB500F017FB04008C
:1001A0000020002106F0FAFC401C606000200021C5
:1001B00006F0DEFCE0601FBD10B510BD00F0E0FAF7
:1001C0001146FFF7E9FF04F0D9FF00F0D1FD03B4B9
:1001D000FFF7F2FF03BC02F01FFD00000948804753
:1001E00009480047FEE7FEE7FEE7FEE7FEE7FEE719
:1001F000FEE7FEE7FEE7FEE704480549054A064B31
:100200007047000015270008210100089811002000
:10021000981B0020981500209815002070470000BA
:100220000FB4044910B503AA029800F0C3F810BC3B
:100230005DF814FB7C00002070B5064600F092F8D3
:100240000468054630460A22002100F0D9F92C60E6
:1002500070BD30B505460B462A4613F8014B12F81F
:10026000010B08B1A042F8D01CB1002802D06D1CCF
:10027000F1E7284630BD10B5203AC0F00B80B1E858
:100280001850203AA0E81850B1E81850A0E81850CB
:10029000BFF4F5AF5FEA027C24BFB1E81850A0E8D4
:1002A000185044BF18C918C0BDE810405FEA827CEE
:1002B00024BF51F8043B40F8043B08BF7047D20705
:1002C00028BF31F8023B48BF11F8012B28BF20F8A6
:1002D000023B48BF00F8012B704700004FF0013C83
:1002E00050F8042B51F8043B9A4221D1A2EB0C03A5
:1002F000934313EACC1317D150F8042B51F8043B65
:100300009A4215D1A2EB0C03934313EACC130BD101
:1003100050F8042B51F8043B9A4209D1A2EB0C038C
:10032000934313EACC13DBD04FF00000704700BFBB
:10033000D01A01BAB1FA81F101F0180122FA01F0E4
:10034000CB40C1F12001DBB2C0B2C01A2CFA01F3DC
:10035000D11A914311EAC311E6D170477047704733
:1003600070477047004870473411002010B5FFF700
:10037000F9FF006810BD10B50446FFF7F3FF0460F5
:1003800010BD000001694A1C02610878704700B581
:100390008FB0CDE901310021059105497944CDE9BE
:1003A00003101146684600F017F80FB000BD0000BA
:1003B000E5FFFFFF074B70B50D467B44FFF7E7FFF6
:1003C0000446284600F0D8F910B14FF0FF3070BD58
:1003D000204670BDBF4300002DE9F05F894604460A
:1003E0004FF0000ADFF874B1FB44C0F820A02046AB
:1003F000E1688847002874D0252806D0D4E9012177
:100400009047206A401C2062F1E700265F462046A4
:10041000E16888472028054607DB312D05D2781989
:1004200010F8200C08B10643F1E7B00701D526F01B
:100430000406C4F81CA00027C4F818A02A2D09D06F
:10044000284602F0E2FB38B304EB8708303DC8F8D9
:10045000185019E059F8041B204604EB87029161FB
:10046000E1688847012F054618D1E069002820DAA5
:1004700026F020061DE0D8F8180000EB800005EB00
:1004800040003038C8F818002046E1688847054623
:1004900002F0BBFB0028EED1012F0AD02E2D08D18F
:1004A0002046E16888477F1C0546022F46F020065B
:1004B000C4DBA069002803DA404246F00106A061CF
:1004C000F00701D026F010066C2D0BD0682D09D056
:1004D0004C2D39D06A2D35D0742D35D07A2D33D0AE
:1004E00016E038E0E1682F4620468847B8420546C6
:1004F00009D16C2F26D04FF48060E1680643204676
:100500008847054604E06C2F1AD04FF480700643EC
:100510000DB3A5F14100192802D8203546F4006634
:100520004A462946204626604E46FFF733FE80B1F4
:1005300001280BD0F61D26F0070000F1080956E748
:100540004020E4E78020D8E70020D6E706F1040940
:100550004DE7284652E7206ABDE8F09FB4730000DB
:100560000FB4002300B589B00CA900910B99CB60A2
:10057000204B7B440693204B7B44079304236FF06E
:100580000042CDE901321D4A7A446B460892024688
:10059000002007F07FF809B05DF814FB70B506463F
:1005A0004FF0FF3015460C46324686B00091CDE93B
:1005B000010169460020049004A8FFF7D1FF03461B
:1005C0000498211825B108B10A4600E022462A60A5
:1005D00000280DD0002B02DD0098884208D032465A
:1005E000081B69460094CDE9010404A8FFF7B8FF91
:1005F00006B070BD250100003D010000FD000000B7
:100600002DE9F04791460F4680460446002614F82F
:10061000015B2DB100F030F80068405DC007F6D1F5
:100620002B2D02D02D2D18D0641E4A463946204667
:1006300000F053F827B13968A14201D1C7F8008012
:100640004FF0020471050BD54042002803DDFFF78F
:1006500089FE0460A007BDE8F08746F48066E4E701
:100660000028F8DAFFF77EFE04606FF00040F2E742
:10067000004870473411002010B500F0A7F8001DA5
:1006800010BD00BF1965000010B50446FFF7F4FF68
:100690000068005D00F0010010BD426842B10168D1
:1006A00011F8013B23B1521EC0E9001218467047F1
:1006B0000121C160881E704742685AB1C368016851
:1006C00043B983688B4205D0491E521CC0E9001211
:1006D000002070474FF0FF3070472DE9F05F8246F1
:1006E00015468B4600270AF10104B94600783028E8
:1006F00001D09DB113E014F8010B0127782803D035
:10070000582801D045B10AE00DB1102D07D10027BE
:1007100014F8010B102502E0082500E00A25002648
:10072000B0460EE005FB080005FB06F101271FFAA5
:1007300080F801EB1046B6F5803F00D3B94614F8B7
:10074000010B294600F046F80028EBDABBF1000F58
:1007500005D00FB1641E00E05446CBF80040B9F15B
:10076000000F06D0FFF7FEFD02210160C81EBDE8A4
:10077000F09F48EA0640FAE7007B00F080007047EF
:100780007546FFF775FFAE4605006946534620F0F3
:100790000700854618B020B5FFF72EFDBDE82040C4
:1007A0004FF000064FF000074FF000084FF0000B2D
:1007B00021F00701AC46ACE8C009ACE8C009ACE8E0
:1007C000C009ACE8C0098D4670470000004870477A
:1007D000541100203A2800D2303820F02002412A5B
:1007E00001D3A2F13700884201D34FF0FF307047A8
:1007F0002DE9FF4F064689B00878FF2806D0491C2E
:100800002D2805D000244FF0000908E000200CE05E
:100810000124F8E709EB8903491C00EB4309087838
:10082000FF28F7D114B1C9F10000814610780025E6
:100830002C46AA4629462D2801D02B2804D1521C2B
:100840002D2813D0002082468B461078FF280FD029
:100850004FF0000C0A21521CA5FB017804FB01811A
:1008600005FB0C11C5194BEB0104EEE70120EAE78B
:10087000002108464FF00000BAF1000F02D000EB53
:1008800080004008C0F38158B8F1010F01DD4FF03E
:10089000FF380C9809EB000755EA040009D04FF027
:1008A000020917F5FA7F0BDA4FEACA70C6E900B001
:1008B00012E04FEACA70C6E900B00DB0BDE8F08F93
:1008C000B7F5FA7F0DDDF0487844D0E90010C6E9AD
:1008D000001040EACA707060FFF744FDC0F8009055
:1008E000EBE7391E02DAC8F1000200E0424600DA06
:1008F000794206A800F0CEF906AB93E8070003ABF7
:1009000083E8070044F23E005BEA04010090584689
:1009100004D144F21E012C465D460091210C0904CD
:10092000014306D10099240444EA15442D041039EA
:10093000009104F07F41014306D10099240244EA6A
:1009400015642D020839009104F07041014306D16D
:100950000099240144EA15742D01091F009104F047
:100960004041014306D10099A40044EA9574AD00CA
:10097000891E009104F00041084304D100986D19CC
:100980006441401E009042466846002FCDE9014573
:1009900003A902DD00F095FE01E000F06AFEBAF165
:1009A000000F04460D4601D084F0004440F2FF776A
:1009B00024F00040284303D0C4F30A50B84212D1B7
:1009C000FFF7D0FCC0F80090C4F30A50B8420AD137
:1009D000AE487844D0E90010C6E9001004F00041A8
:1009E0000843706069E7C6E9005466E72DE9FF4FE8
:1009F0001F464FF0000A4FF0FF38454691B0D7E947
:100A00000146CDF83CA0FFF7E1FEC0680168405CFC
:100A10001090B96912986D1C8847396A81468847D9
:100A20000028F6D1B9F1FF3F0AD0002E24F4D0649B
:100A300011DDB9F12B0F08D0B9F12D0F0BD102E068
:100A4000404615B03AE744F48064B96912986D1CC9
:100A50008847761E8146600504A901D52D2000E057
:100A60002B20002E01F1010B0DF130088DF8100044
:100A70003FDDB9F1690F08D0B9F1490F05D0B9F1DF
:100A80006E0F02D0B9F14E0F1CD13B4601A8009564
:100A900080E85002DDE912126FF0020006F0FEFD60
:100AA000C11CCED10EE0B96912986D1C88478146F1
:100AB0001398761E44F4007405600F98401C002EB5
:100AC0000F9016DDB9F1300FEDD0B9F1780F02D0EB
:100AD000B9F1580F0DD10F9801280AD13B46CDE945
:100AE0000054DDE91212001F029606F0D5FDC11C6C
:100AF000A7D1109989453ED144F0800406E01399AE
:100B0000681CAAF1010A44F400740860B9696D1CFC
:100B10001298761E884730288146F0D02BE0109935
:100B2000894505D1200603D4761E44F0800418E0E0
:100B3000484602F06AF808B3761E0DF123018B4592
:100B400044F4007408D2A9F130000BF8010B200620
:100B500007D5AAF1010003E0200602D40AF1010042
:100B60008246A00502D51399681C0860B9691298DD
:100B70006D1C88478146002ED1DC53E0002E51DDEC
:100B8000B9F1650F02D0B9F1450F4BD1A00549D598
:100B9000B9696D1C1298761E24F440748847002EA3
:100BA00081460CDD2B2804D0B9F12D0F07D144F478
:100BB0008074B96912986D1C8847761E8146E005DD
:100BC00001D52D2100E02B2108F8011BCDF8008074
:100BD00021E0761E0DF13901884544F400740CD2F1
:100BE000A9F1300010F0FF0088F8000002D1009950
:100BF000884509D908F1010806E0E00501D5244837
:100C000001E042F20F708246B96912986D1C884764
:100C1000814613980560002E04DD484601F0F5FF7B
:100C20000028D6D1F96912988847FF2053468BF8DF
:100C3000000088F8000000200A900B9004AA0CA97C
:100C40000AA8FFF7D5FDA00502D46FF00100F8E671
:100C500014F0240F0AD0E00714D13868DDE90A1235
:100C6000031D3B600068C0E900120BE00AA968465A
:100C700001F074FFE00705D13868009A011D396062
:100C8000006802602846DCE6E46F0000DA6E0000CF
:100C9000F1D8FFFF2DE9F047814616468AB0334868
:100CA00078440DC88DE80D0030487844801C03ACB2
:100CB0000DC884E80D0041F69B300844372190FBB5
:100CC000F1F290FBF1F5A5F1800501FB12041B3C4C
:100CD00002D56442012000E00020DFF890A08046A9
:100CE0000027FA44AAF1BE0A0DE0E00709D0324617
:100CF000684607EB47010AEB810100F0CEFC8DE866
:100D0000070064107F1C002CEFD1184F7F44AC3FCC
:100D100018E0E80714D007EB04100DF1180A90E86A
:100D20000E008AE80E00C068F04201D198190890C0
:100D3000324606A903A800F0B0FC03AB83E8070025
:100D40006D10641C002DE4D132466946B8F1000FE5
:100D500003A802D000F079FC01E000F09EFCC9E994
:100D60000001C9F808200AB0BDE8F0878C6B0000CC
:100D700010B50446AFF300802046BDE81040FFF7F1
:100D800026BA00002DE9FF4F1F464FF03C0987B0FF
:100D90004FF00042DDE9141001F10108DDF858A020
:100DA00002EA405003900020049083460546044622
:100DB0000590B969461E08988847AAF1010A029071
:100DC000BAF1000F37DD02982E2815D01021FFF759
:100DD00001FD00282ADB4FF0010B0499014316D0D6
:100DE000B9F1000F0BDB4A46C11700F0F1F90543DA
:100DF0000C43A9F1040905E00120059007E008B1C2
:100E000045F0010501200490059800B9361DB96927
:100E1000089808F101088847BBF1000FAAF1010A00
:100E20000290CDD00999C1F80080C9E702987028D6
:100E300008D0502806D0F96908988847BBF1000F00
:100E400014D04FE0002002900120BBF1000F04906D
:100E500009D0B969089808F101088847AAF1010981
:100E6000B9F1000F07DCF969089888476FF00100B5
:100E70000BB0BDE8F08F2B2804D02D280CD14FF0FB
:100E8000FF300490B969089808F101088847A9F172
:100E90000109B9F1000FE6DD411CE4D00A21FFF79A
:100EA00099FC0028DFDB029908F1010801EB8101C0
:100EB00000EB41000290B969089888470A21FFF7C2
:100EC00089FC099AA9F10109B9F1000FC2F8008063
:100ED00001DD0028E7DAF969089888470499029843
:100EE00000FB016655EA040004D004F0404109000B
:100EF00002D006E0039898E0A40044EA9574AD009F
:100F0000B61E04F00041080002D16D196441761E3E
:100F1000159810F0240F03D04FF00B095C4803E044
:100F20004FF028096FF07D008246564507DAAAEB9C
:100F300006018944B9F1410F01DD4FF0410901205B
:100F40000021A9F1010200F043F9024628400B46B6
:100F50002140084301D0012100E00021501E0291F0
:100F600043F1FF3128402140084301D0012000E037
:100F700000200299834651EA0B014FD00021084618
:100F80004FF00000039900F4400039B100EB8000FD
:100F90004FF4400100EBD07001EA60008015012899
:100FA00002DD4FF0FF3000E013D0401C36D0029835
:100FB00060B3BBF1000F0CD14A460120002100F0C4
:100FC00007F928402140084301D0012000E000201B
:100FD000E0B101204A46002100F0FAF8034640192A
:100FE0000A4661412D1A8C4111D3B9F1400F09DD38
:100FF000159810F0240F02D0AAF1340603E0AAF1EC
:10100000170600E0761C00254FF0004406E05B1E4A
:1010100042F1FF3220EA030521EA0204CAF101008D
:10102000B04206DA1B490398084301900020009063
:101030000EE0039AC4F3D321E80A0A43164940EAB2
:1010400044500A433146CDE90002684601F0D2FD22
:10105000159810F0240F0BD01598C00715D13868DB
:10106000DDE90012031D3B600068C0E900120CE0DE
:1010700002A8694601F072FD1598C00705D13868CD
:10108000029A011D3960006802604046F0E60000E7
:1010900002FCFFFF0000F07F0000F03F2DE9FF4F52
:1010A00092461D4685B04FF00041DDE9124BDDE967
:1010B00014727F1E01EA4B50414940F0FF4940EA5B
:1010C0000108002122F020004928049102D04E2876
:1010D00028D04CE03BA0012607C88DE80700A9698D
:1010E0000698641C88477F1E014606D41DF806003A
:1010F00018B121F0200181420BD0E9690698884798
:10110000032E34D0082E32D06FF0010009B0BDE8B4
:10111000F08F761C032E01D0082EE0D1601CCAF897
:101120000000DCE7A9690698641C88477F1E2AD462
:1011300020F02000412826D1A9690698641C884720
:101140007F1E20D420F020004E281CD1A9690698CB
:10115000641C88477F1E48F4002849F48009CAF8B7
:10116000004001D4282806D0E969069888475FEA3C
:10117000CB7012D022E0A9690698641C88477F1EB4
:1011800001D4002803DAE96906988847BCE72928D2
:10119000F1D1641CCAF80040E9E71BF0240F07D026
:1011A00028680499031D2B600068C0E9001805E059
:1011B0002868021D2A600068C0F800902046A5E754
:1011C0000000F07F494E46494E4954590000000046
:1011D000B2F120030AD5C2F1200301FA02F120FA8C
:1011E00003F300FA02F041EA0301704700FA03F149
:1011F0004FF00000704720F07F4C80EA030023F09E
:101200007F47ACEB070303F57C5300F0004003F18C
:10121000FF032DE980494FEA154B09B44FEA144307
:1012200025EA0B4E24EA03480FF2042606EB1327A7
:1012300049083E785FEA320203FB0667C7F50007FC
:1012400007FB06F64FEA54374FEAD64606F1020688
:1012500007FB066CCCF1005C4FEA1C472CEA074CFC
:1012600007FB06F40CFB06F504EB15464FEA961651
:1012700034BF00204FF000404FEAD13706FB07FC97
:101280004FEA1C4C0CFB0BF7D21B03FB0CF761EB7A
:1012900007010CFB0EF7B0EB074072EB17420CFB9B
:1012A00008F734BFA2EB0742B2EB074261EB1741EC
:1012B0004FEA0C444FEA910706FB07FC4FEA1C4C2F
:1012C0000CFB0BF7B0EBC74072EB573203FB0CF78C
:1012D00034BFA2EBC742B2EBC74261EB57310CFB04
:1012E0000EF7B0EBC70072EB57720CFB08F734BF78
:1012F000A2EBC702B2EBC70261EB5771039F4FEA43
:10130000816141EA921104EBCC044FEAD1374FEAF4
:10131000826206FB07FC42EA90124FEA80604FEAC5
:101320001C4C0CFB0BF7D21B03FB0CF761EB07010A
:101330000CFB0EF7B0EB074072EB17420CFB08F703
:1013400034BFA2EB0742B2EB074261EB17414FEA11
:101350008C554FEA910704EB9C2406FB07FC4FEAEF
:101360001C4C0CFB0BF7B0EBC74072EB573203FB86
:101370000CF734BFA2EBC742B2EBC74261EB573167
:101380000CFB0EF7B0EBC70072EB57720CFB08F7C3
:1013900034BFA2EBC702B2EBC70261EB577115EB8A
:1013A0004C254FEA816141EA92114FEA82624FEA8D
:1013B000D13742EA901206FB07FC44F100044FEAE1
:1013C00080604FEA1C4C0CFB0BF7D21B03FB0CF7A5
:1013D00061EB07010CFB0EF7B0EB074072EB174215
:1013E0000CFB08F734BFA2EB0742B2EB074261EBFC
:1013F000174115EB1C154FEA813141EA92414FEA42
:10140000823242EA90424FEA80304FEA0C7644F151
:10141000000448EA03434EEA0B484FF0000EB2EBDB
:10142000080C71EB030724BF624639464EEB0E0EE3
:101430004FF0000B0018524149414BEB0B0BB2EB44
:10144000080C71EB03077BF1000B24BF62463946A1
:101450004EEB0E0E4FF0000B0018524149414BEB82
:101460000B0BB2EB080C71EB03077BF1000B24BFF5
:10147000624639464EEB0E0E51EA020718BF46F09F
:10148000010616EB0E7655F1000254F1000103D56A
:10149000BDE88901BDE80088BDE88901BDE80048D4
:1014A000B619524141EB0101A3F10103704780805D
:1014B0007F7E7D7C7B7A79787776767574737271AE
:1014C00071706F6E6E6D6C6C6B6A6A696868676666
:1014D00066656464636362616160605F5F5E5E5DF8
:1014E0005D5C5C5B5B5A5A5959585857575656556C
:1014F00055555454535352525251515050504F4FCE
:101500004F4E4E4D4D4D4C4C4C4B4B4B4A4A4A491D
:101510004949484848474747474646464545454460
:101520004444444343434342424242414141000018
:1015300046EA0646A3F570534FEA164646EA425677
:101540004FEAD22242EA415210B54FEAD121A3F12B
:10155000010300F017F820F0004000F1010C00F04A
:10156000004701EB00501146BCF5006F40EA070050
:1015700000D210BD02484FF0000140EA070010BD44
:101580000000F07F002B26D4770021D01CB54FEA55
:10159000370703B44FF010004FF010014FF0000078
:1015A0000FBCBDE810400BF1010BBBF1010F08BFF0
:1015B0005FEA170722BF12F1010211F101014FF09A
:1015C000004143F1000300F0004043EA000070478F
:1015D000F9D35708DAE746EA064613F1400F4FEA17
:1015E00016461FDD13F1200FDFBF16430A46002108
:1015F00020335B42C8D0C3F1200746EA064602FA10
:1016000007F74FEA164646EA0706C3F1200722FA13
:1016100003F201FA07F721FA03F14FF0000342EA5F
:101620000702B1E746EA020646EA06464FEA1646D0
:1016300046EA0106BCBF46EA0646360C4FF00003F8
:101640004FF000024FF000019EE72DE9C04893469D
:1016500030B491E8380007C831EA400C48BF34EA9A
:10166000430C03D5FFF7C7FDFFF78CFFF0BCBDE8C7
:1016700000882DE9C048934630B491E8380007C887
:1016800031EA400C48BF34EA430C03D5FFF7B3FD01
:10169000FFF74EFFF0BCBDE800882DE9C048934637
:1016A00030B491E8380007C810F0804F08BF13F03D
:1016B000804F03D100F019F8FFF764FFF0BCBDE8DC
:1016C00000882DE9C048934630B491E8380007C837
:1016D00010F0804F08BF13F0804F03D100F005F8E1
:1016E000FFF726FFF0BCBDE8008820F07F4780EAC6
:1016F000030023F07F4C07EB0C03A3F57C5300F0B1
:101700000040A3F1FE0392F0000F00F0B38095F0CB
:10171000000F00F077802DE901494FEA11404FEAB0
:10172000144621EA004800FB06FC24EA064708FBB1
:1017300006F607FB08F800FB07F718EB06484CEB2A
:10174000164C4FEA124B18EB07484FEA15464CEB84
:10175000174022EA0B4E0BFB06FC25EA06470EFB60
:1017600006F607FB0EFE0BFB07F71EEB064E4CEBD7
:10177000164C4FF000061EEB074E4CEB174B18EBC8
:101780000B0840F1000018EB0E0B58EB000840F17D
:1017900000008F1A4FF000013CBFC943661B14BF05
:1017A000B5EB040C00213CBFC943F61B4FEA1744BC
:1017B0004EEA8E0E27EA04454FEA1C4704FB0762F7
:1017C0002CEA074C05FB07F70CFB05F604FB0CFCA9
:1017D00016EB074642EB174216EB0C4642EB1C4257
:1017E0001BEB060658EB0202414146EA9E0601D574
:1017F000BDE80189B619524141EB0101A3F1010392
:10180000BDE801894FEA14454FEA114724EA05462D
:1018100021EA074C05FB07F406FB07F70CFB06F172
:1018200005FB0CFC11EB074144EB17444FEA124750
:1018300011EB0C4144EB1C4422EA074C05FB07F278
:1018400006FB07F70CFB06F605FB0CFC16EB074640
:1018500042EB174216EB0C4642EB1C456A1854F15A
:10186000000148BF7047B619524141EB0101A3F195
:101870000103704795F0000F37D04FEA11424FEA4D
:10188000144721EA024624EA074C02FB07F106FB53
:1018900007F70CFB06F402FB0CFC14EB074441EBCE
:1018A00017414FEA154714EB0C4441EB1C4125EA64
:1018B000074C02FB07F506FB07F70CFB06F602FBDD
:1018C0000CFC16EB074645EB174516EB0C4645EBB3
:1018D0001C42121951F1000148BF7047B61952411C
:1018E00041EB0101A3F1010370474FEA14454FEAB0
:1018F000114724EA054621EA074C05FB07F106FBE0
:1019000007F70CFB06F24FF0000605FB0CFC12EB90
:10191000074241EB174112EB0C4251EB1C4148BF0F
:101920007047921841EB0101A3F1010370470000D9
:1019300070B5002500241DA11F48FEF78AFC04464F
:1019400044B11EA0FEF76CFC4FF4FA7001F04EFE9D
:1019500000F09EF800241DA11748FEF77AFC04460B
:1019600044B11EA0FEF75CFC4FF4FA7001F03EFE9D
:1019700000F08EF800241DA10F48FEF76AFC044613
:101980004FF47A7001F032FE6CB1002504E00020C3
:1019900009494855681CC5B2174800788542F6DBEE
:1019A000002015490870204670BD00002B4254509D
:1019B000414952494E473A00D006002041542B423B
:1019C00054504149523D312C310D0A002B425443B1
:1019D0004F4E4E454354494E473A000041542B4226
:1019E00054414350543D310D0A0000002B425443F2
:1019F0004F4E4E4543543A008000002010B512A0CF
:101A0000FEF70EFC4FF47A7001F0F0FD00F040F8A4
:101A100011A0FEF705FC4FF47A7001F0E7FD00F02D
:101A200037F812A0FEF7FCFB4FF47A7001F0DEFDF0
:101A300000F02EF811A0FEF7F3FB4FF47A7001F0DE
:101A4000D5FD00F025F810BD41542B4254504F579E
:101A500045523D310D0A000041542B4254484F532A
:101A6000543D3575436C6F75640D0A0041542B422B
:101A700054484F53543F0D0A0000000041542B427C
:101A8000545649533D310D0A0000000000BFFEE7E7
:101A900000B5094801F01EF8002304E000200649C3
:101AA000C854581CC3B2054800788342F6DB0020B6
:101AB0000249087000BD0000D00600208000002010
:101AC000704710B5012000F00DF820B103F016F9B1
:101AD000012000F001F810BD0149086070470000C6
:101AE00014040140014600200022074B1B6803EA52
:101AF0000102054B14331B680B4013B10AB10120DE
:101B000000E000207047000000040140002123494C
:101B10008279002A3AD00A46126803689A430B4633
:101B20001A600A1D126803689A430B1D1A60027935
:101B300011440A6803681A430A60184A0832126896
:101B400003689A43154B08331A601A1D126803681C
:101B50009A43124B0C331A604279102A0ED11A1F85
:101B6000126803681A430D4B08331A601A1D126875
:101B700003681A43094B0C331A600DE00749427998
:101B800011440A6803681A430A6005E002791144A7
:101B90000A6803689A430A60704700000004014025
:101BA00030B500228B071C0F0F2303FA04F20B4BF6
:101BB0008C1053F824309343084C8D1044F8253092
:101BC00023468C1053F824308C07240F00FA04F4B9
:101BD0002343024C8D1044F8253030BD08000140ED
:101BE0002DE9F041024600250026002000230024B4
:101BF000002791F803C00CF00F0591F803C00CF01A
:101C0000100CBCF1000F03D091F802C04CEA05059E
:101C100091F800C0BCF1000F31D0146800202BE017
:101C20004FF0010C0CFA00F3B1F800C00CEA030607
:101C30009E4220D183004FF00F0C0CFA03F7BC43F7
:101C400005FA03FC4CEA040491F803C0BCF1280F28
:101C500006D14FF0010C0CFA00FCC2F814C00AE0E7
:101C600091F803C0BCF1480F05D14FF0010C0CFAFC
:101C700000FCC2F810C0401C0828D1D31460B1F891
:101C800000C0BCF1FF0F34DD546800202EE000F1ED
:101C9000080C4FF0010808FA0CF3B1F800C00CEA88
:101CA00003069E4221D183004FF00F0C0CFA03F77C
:101CB000BC4305FA03FC4CEA040491F803C0BCF1F0
:101CC000280F05D100F1080C08FA0CF8C2F81480AE
:101CD00091F803C0BCF1480F07D100F1080C4FF098
:101CE000010808FA0CF8C2F81080401C0828CED36E
:101CF0005460BDE8F0810000F0B50A4600230024DE
:101D00000021002500F00046B6F1004F02D11D4E23
:101D1000F16901E01B4E7168C0F3034583B200F422
:101D20004016B6F5401F08D121F07061154E766857
:101D300026F07066134F7E6012E000F48016B6F550
:101D4000801F06D1032606FA05F4A14341F0706115
:101D500006E0460D360103FA06F6B14341F0706124
:101D600022B1460D360103FA06F6314300F0004673
:101D7000B6F1004F02D1034EF16101E0014E7160F6
:101D8000F0BD0000000001400246002093680B40B7
:101D90000BB1012000E000207047416170470161F4
:101DA0007047000010B50024FFF772FE11A0FEF787
:101DB00037FA4FF4FA7001F019FC12A11448FEF73B
:101DC00048FA044634B113A0FEF72AFA4FF4FA7029
:101DD00001F00CFCFFF75CFE12A0FEF721FA4FF4B5
:101DE000FA7001F003FCFFF753FE13A0FEF718FA98
:101DF00010BD000041542B434750535057523F0DE4
:101E00000A0000002B434750535057523A203000ED
:101E1000D006002041542B434750535057523D3178
:101E20000D0A000041542B4347505353544154551D
:101E3000533F0D0A0000000041542B434750534FBD
:101E400055543D300D0A000010B50024CCA0FEF71B
:101E5000E7F94FF4FA7001F0C9FBC9A0FEF7E0F909
:101E60004FF4FA7001F0C2FBC7A1C848FEF7F1F9C0
:101E700004460DE0FFF70CFEC1A0FEF7D1F94FF4C8
:101E8000FA7001F0B3FBC0A1C048FEF7E2F90446C6
:101E9000002CEFD0BEA0FEF7C3F94FF4FA7001F0AA
:101EA000A5FBBEA1B948FEF7D4F904460DE0FFF743
:101EB000EFFDB7A0FEF7B4F94FF4FA7001F096FB0E
:101EC000B6A1B248FEF7C5F90446002CEFD0FFF7E3
:101ED000DFFDB6A0FEF7A4F9FFF7DAFDB6A0FEF726
:101EE0009FF94FF4FA7001F081FBB6A1A748FEF705
:101EF000B0F904460DE0FFF7CBFDAFA0FEF790F977
:101F00004FF4FA7001F072FBB1A1A048FEF7A1F9FD
:101F10000446002CEFD0FFF7BBFDB0A0FEF780F920
:101F20004FF4FA7001F062FBB0A19848FEF791F906
:101F300004460DE0FFF7ACFDA8A0FEF771F94FF4E1
:101F4000FA7001F053FBACA19048FEF782F9044609
:101F5000002CEFD0FFF79CFDAAA0FEF761F94FF42B
:101F6000FA7001F043FBABA0FEF75AF94FF4FA7098
:101F700001F03CFBABA18548FEF76BF904460DE090
:101F8000FFF786FDA3A0FEF74BF94FF4FA7001F0BE
:101F90002DFBA4A17D48FEF75CF90446002CEFD090
:101FA000FFF776FDA1A0FEF73BF94FF4FA7001F0C0
:101FB0001DFB75A17548FEF74CF904460DE0FFF7CF
:101FC00067FD9AA0FEF72CF94FF4FA7001F00EFBB2
:101FD0006DA16E48FEF73DF90446002CEFD0FFF7E7
:101FE00057FD97A0FEF71CF94FF4FA7001F0FEFAC6
:101FF00065A16648FEF72DF904460DE0FFF748FDA0
:102000008FA0FEF70DF94FF4FA7001F0EFFA5EA120
:102010005E48FEF71EF90446002CEFD0FFF738FDAE
:102020008EA0FEF7FDF84FF4FA7001F0DFFA56A12A
:102030005648FEF70EF904460DE0FFF729FD87A08C
:10204000FEF7EEF84FF4FA7001F0D0FA4EA14F48C7
:10205000FEF7FFF80446002CEFD0FFF719FD83A030
:10206000FEF7DEF84FF4FA7001F0C0FA46A14748D7
:10207000FEF7EFF804460DE0FFF70AFD7BA0FEF740
:10208000CFF84FF4FA7001F0B1FA3FA13F48FEF7E4
:10209000E0F80446002CEFD0FFF7FAFC79A0FEF739
:1020A000BFF84FF4FA7001F0A1FA37A13748FEF7F4
:1020B000D0F804460DE0FFF7EBFC72A0FEF7B0F895
:1020C0004FF4FA7001F092FA2FA13048FEF7C1F8F0
:1020D0000446002CEFD0FFF7DBFC6EA0FEF7A0F863
:1020E0004FF4FA7001F082FA27A12848FEF7B1F800
:1020F00004460DE0FFF7CCFC66A0FEF791F84FF424
:10210000FA7001F073FA20A12048FEF7A2F8044605
:10211000002CEFD0FFF7BCFC62A0FEF781F84FF473
:10212000FA7001F063FA18A11848FEF792F8044615
:102130000DE066A11548FEF78CF8044666A1134829
:10214000FEF787F868490860642001F04FFA1CB96F
:10215000654800680028ECD04FF4FA7001F046FAA8
:102160004FF4FA7001F042FA4FF4FA7001F03EFABF
:102170004FF4FA7001F03AFAFFF78AFC10BD000044
:1021800041540D0A000000004F4B0000D006002013
:1021900041542B4350494E3F0D0A00002B435049F8
:1021A0004E3A2052454144590000000041542B430F
:1021B0004349440D0A0000002041542B4352454737
:1021C0003F0D0A002B435245473A20302C35000082
:1021D0002B435245473A20302C3100002041542BEC
:1021E00043475245473F0D0A000000002B4347522A
:1021F00045473A20302C35002B43475245473A207B
:10220000302C310041542B434950434C4F53453DF2
:10221000310D0A0041542B434950534855540D0A7F
:102220000000000053485554204F4B0041542B43AD
:1022300047434C4153533D2242220D0A0000000007
:1022400041542B434744434F4E543D312C22495077
:10225000222C22434D4E4554220D0A0041542B435B
:10226000474154543D310D0A0000000041542B43B6
:102270004950435347503D312C22434D4E45542243
:102280000D0A000041542B4349504D55583D300D27
:102290000A00000041542B4349504D4F44453D3105
:1022A0000D0A000041542B43495053544152543DB0
:1022B00022544350222C2234372E39322E38312EDC
:1022C000323138222C313139340D0A00434F4E4E11
:1022D000454354204F4B0000414C52454144592046
:1022E000434F4E4E454354009400002000BFFEE78C
:1022F00000BFFEE77047000070B5002100230F22E9
:10230000C47804B3154C246804F4E064C4F5E064B4
:10231000210AC1F10403CA40447804FA03F1847825
:102320001440214309010E4C0678A155047804F0AD
:102330001F050124AC4005786D11AD0005F1E025C5
:10234000C5F8004109E0047804F01F050124AC4001
:10235000044D0678761145F8264070BD0CED00E07E
:1023600000E400E080E100E002490143024A11601C
:10237000704700000000FA050CED00E010B50024E5
:1023800003F0FAFB03F00EFC03F026FC2BA0FDF794
:1023900047FF4FF4967001F029F92AA12A48FDF76A
:1023A00058FF044625A0FDF73BFF4FF4967001F05F
:1023B0001DF924A12448FDF74CFF0446BCB9202197
:1023C0002248FFF7EAFC4FF4967001F00FF94FF442
:1023D000967001F00BF920211C48FFF7E0FC4FF448
:1023E0007A7001F003F94FF47A7001F0FFF813A04E
:1023F000FDF716FF4FF4967001F0F8F811A112489E
:10240000FDF727FF04460BE00CA0FDF709FF4FF492
:10241000967001F0EBF80BA10B48FDF71AFF04468C
:10242000002CF1D0FFF734FB09A0FDF7F9FE4FF4C3
:10243000FA7001F0DBF8FFF72BFB10BD41540D0AD9
:10244000000000004F4B0000D006002000080140B3
:10245000415445310D0A00007047000029B1064A79
:10246000D2690243044BDA6104E0034AD269824331
:10247000014BDA61704700000010024029B1064AA2
:1024800012690243044B1A6104E0034A1269824351
:10249000014B1A61704700000010024029B1064A42
:1024A00092690243044B9A6104E0034A92698243B1
:1024B000014B9A61704700000010024029B1064AA2
:1024C000D2680243044BDA6004E0034AD2688243D4
:1024D000014BDA60704700000010024070B5002127
:1024E00000230024002200252C4E766806F00C0103
:1024F00021B1042905D0082921D105E0284E066024
:1025000020E0284E06601DE0244E766806F4701325
:10251000224E766806F48034022606EB93431CB9FB
:10252000214E5E43066009E01C4EF66A06F00F0677
:10253000751C1C4EB6FBF5F65E43066002E0184EB5
:10254000066000BF00BF154E766806F0F00109096D
:10255000164E725C0668D6404660104E766806F4E9
:10256000E061090A114E725C4668D64086600B4EE7
:10257000766806F46051C90A0C4E725C4668D64013
:10258000C660064E766806F44041890B084E725CC0
:10259000C668B6FBF2F6066170BD0000001002408E
:1025A00000127A0000366E0100093D00A2000020F2
:1025B000B200002021B1028842F04002028004E013
:1025C00002884FF6BF731A4002807047024600200F
:1025D00013890B400BB1012000E000207047014639
:1025E000888970478181704710B50022028802F403
:1025F00041520B884C8823438C882343CC88234347
:102600000C8923434C8923438C892343CC8923435E
:102610001A430280838B4FF2FF74234083830B8A1B
:10262000038210BD704710B500F002F810BD000025
:102630000CB50020019000902A48006840F48030DA
:102640002849086000BF2748006800F40030009067
:102650000198401C0190009818B90198B0F5A06F3E
:10266000F1D12048006800F4003010B10120009042
:1026700001E0002000900098012831D119484068FD
:102680001849486008464068486008464068486005
:102690000846406820F47C1048600846406840F4D2
:1026A000403048600846006840F08070086000BF15
:1026B0000C48006800F000700028F9D00948406814
:1026C00020F00300074948600846406840F00200D7
:1026D000486000BF0348406800F00C000828F9D1AA
:1026E0000CBD000000100240042808D14FF0E0218A
:1026F000096941F004014FF0E022116107E04FF059
:10270000E021096921F004014FF0E02211617047D6
:102710007047000010B51448006840F001001249ED
:10272000086008464068114908400F49486008465B
:1027300000680F4908400C4908600846006820F40A
:10274000802008600846406820F4FE0048604FF48E
:102750001F0088600020C862FFF765FF4FF000602F
:102760000449086010BD0000001002400000FFF89E
:10277000FFFFF6FE08ED00E010B540F225510848D5
:1027800000F0E3F858B1064800F09AF9C1B20548E4
:1027900002780078401C034B18700348815410BD28
:1027A0000038014080000020D006002010B540F223
:1027B00025511D4800F0C9F8A0B31C48006840F23C
:1027C0004F51884202DB002018490860164800F08B
:1027D00077F9C1B2154802680068401C134B1860B5
:1027E000134881541846006801281BDD184600680C
:1027F000401E0F49085C472814D118460068801E07
:10280000085C4E280ED10B480068401C094908603E
:1028100008460068022805D1002240F225510248EE
:1028200000F0BDF810BD000000440040840000200E
:10283000D00800208800002010B540F225510C4837
:1028400000F083F898B10A4800F03AF9C1B209489B
:1028500002680068401C074B1860074881541846FE
:102860000068401E044A115C014800F02EF910BDBA
:10287000004800408C0000201F0E002021B18289FA
:1028800042F40052828104E082894DF6FF731A40BF
:102890008281704710B504462048844209D1012145
:1028A0008803FFF70BFE00214FF48040FFF706FE80
:1028B00032E01B48844209D101214804FFF7DEFDC4
:1028C00000214FF40030FFF7D9FD25E01548844280
:1028D00009D101218804FFF7D1FD00214FF48020A8
:1028E000FFF7CCFD18E01048844209D10121C8044B
:1028F000FFF7C4FD00214FF40020FFF7BFFD0BE000
:102900000A48844208D101210805FFF7B7FD0021DC
:102910004FF48010FFF7B2FD10BD000000380140F9
:102920000044004000480040004C0040005000407F
:1029300002460020B1F5007F00D100BF13880B4094
:102940000BB1012000E00020704770B50246002462
:1029500000230025002040F66A16B14200D100BFD6
:10296000C1F3421501F01F03012606FA03F3012DFE
:1029700002D19689334006E0022D02D1168A3340F7
:1029800001E0968A33400C12012606FA04F41688F8
:10299000344013B10CB1012000E0002070BDF0B54F
:1029A0000346002400260025002040F66A17B9429D
:1029B00000D100BF1846C1F3421401F01F060127E1
:1029C00007FA06F5012C01D10C3004E0022C01D1EC
:1029D000103000E014301AB107682F43076002E09E
:1029E0000768AF430760F0BD2DE9F04786B00546A4
:1029F0000E460024A24600BFA1460027B08900B1C0
:102A000000BF2F462C8A4CF6FF700440F088044328
:102A10002C82AC894EF6F3100440B088318908430B
:102A2000718908430443AC81AC8A4FF6FF400440EF
:102A3000B0890443AC8201A8FFF750FD1F488742CC
:102A400002D1DDF810A001E0DDF80CA0A88900F4A7
:102A5000004040B10AEBCA0000EB0A10316849009F
:102A6000B0FBF1F807E00AEBCA0000EB0A1031688E
:102A70008900B0FBF1F86420B8FBF0F004012009F4
:102A8000642101FB1089A88900F4004040B1322084
:102A900000EBC900B0FBF1F000F00700044308E0D0
:102AA000322000EB09106421B0FBF1F000F00F00C0
:102AB00004432C8106B0BDE8F087000000380140D7
:102AC00001468888C0F308007047C1F3080282807D
:102AD000704700000BE000BF0749098801F0400182
:102AE0000029F9D00178044A121D1180401C017898
:102AF0000029F0D1704700000048004000BFFEE709
:102B000070B504460D4629462046FFF7DEFF00BF9C
:102B100080212046FFF70CFF0028F9D070BD2DE979
:102B2000F04107460D461646002400BF295D384691
:102B3000FFF7E6FF641CB442F8D3BDE8F08140F231
:102B4000013200204FF0E04104F076BD024A00203F
:102B5000110704F071BD000001FDFFFF10B5044630
:102B6000D1E9000100F002F8206010BDF8B504467C
:102B70000D466A4601F010FE00987E300090002855
:102B80001FDC002213462046294604F063F818D0C3
:102B9000002140F608004FF0000006462046294676
:102BA00004F012F8044640F6080006EA00014FF06F
:102BB000000034F0004004BF0220FDF7DCFB20469B
:102BC000F8BD0098FF280DDB0220FDF7D4FB0022A2
:102BD00013462046294604F0B3F98CBF04484FF051
:102BE000FF40F8BD20462946BDE8F84003F0ECBFA1
:102BF000000080FF10B504460A46D4E900031946D8
:102C000002F042F9C4E9000110BD30380A2801D2AF
:102C10000120704700207047014600BF7047000048
:102C200010B50024B9A0FDF7FBFA4FF4FA7000F0DC
:102C3000DDFCBAA1BC48FDF70CFB04460DE0FEF735
:102C400027FFB2A0FDF7ECFA4FF4FA7000F0CEFCCB
:102C5000B2A1B548FDF7FDFA0446002CEFD0FEF70F
:102C600017FFB2A0FDF7DCFA4FF4FA7000F0BEFCDB
:102C7000B3A1AD48FDF7EDFA04466CB9FEF708FFC5
:102C8000AAA0FDF7CDFA4FF4FA7000F0AFFCACA1AA
:102C9000A548FDF7DEFA0446FEF7FAFEA9A0FDF707
:102CA000BFFA4FF4FA7000F0A1FCA5A19E48FDF711
:102CB000D0FA04466CB9FEF7EBFEA2A0FDF7B0FA1D
:102CC0004FF4FA7000F092FC9DA19748FDF7C1FA0D
:102CD0000446FEF7DDFE9FA0FDF7A2FA4FF4FA705E
:102CE00000F084FC96A19048FDF7B3FA04466CB955
:102CF000FEF7CEFE97A0FDF793FA4FF4FA7000F0BE
:102D000075FC8FA18848FDF7A4FA0446FEF7C0FEC3
:102D10009648FDF785FA4FF4FA7000F067FC88A139
:102D20008148FDF796FA04466CB9FEF7B1FE8F486C
:102D3000FDF776FA4FF4FA7000F058FC80A17A485B
:102D4000FDF787FA0446FEF7A3FE89A0FDF768FAAF
:102D50004FF47A7000F04AFC4FF47A7000F046FCB1
:102D60004FF47A7000F042FC4FF47A7000F03EFCB1
:102D70004FF47A7000F03AFC71A16B48FDF769FAE4
:102D80000446ECB9FEF784FE79A0FDF749FA4FF44A
:102D90007A7000F02BFC4FF47A7000F027FC4FF4AF
:102DA0007A7000F023FC4FF47A7000F01FFC4FF4AF
:102DB0007A7000F01BFC62A15B48FDF74AFA0446FA
:102DC000FEF766FE6FA0FDF72BFA4FF4FA7000F0E5
:102DD0000DFC5BA15448FDF73CFA04466CB9FEF7C4
:102DE00057FE68A0FDF71CFA4FF4FA7000F0FEFBE6
:102DF00053A14D48FDF72DFA0446FEF749FE65A0A4
:102E0000FDF70EFA4FF47A7000F0F0FB4FF47A7091
:102E100000F0ECFB4AA14448FDF71BFA04468CB9CC
:102E2000FEF736FE5BA0FDF7FBF94FF47A7000F079
:102E3000DDFB4FF47A7000F0D9FB41A13A48FDF771
:102E400008FA0446FEF724FE57A0FDF7E9F94FF40F
:102E50007A7000F0CBFB3AA13348FDF7FAF904464B
:102E60006CB9FEF715FE50A0FDF7DAF94FF47A7051
:102E700000F0BCFB32A12C48FDF7EBF90446FEF74D
:102E800007FE4EA0FDF7CCF94FF4FA7000F0AEFB50
:102E90002BA12548FDF7DDF904466CB9FEF7F8FDD6
:102EA00046A0FDF7BDF94FF4FA7000F09FFB24A196
:102EB0001D48FDF7CEF90446FEF7EAFD43A0FDF7F5
:102EC000AFF94FF47A7000F091FB1DA11648FDF7A1
:102ED000C0F904466CB9FEF7DBFD3CA0FDF7A0F994
:102EE0004FF47A7000F082FB15A10F48FDF7B1F99D
:102EF0000446FEF7CDFD3AA0FDF792F94FF4FA70C3
:102F000000F074FBFEF7C4FD10BD000041542B43DC
:102F10004C42533D312C310D0A0000002B434C42F2
:102F2000533A203000000000D006002041542B43CB
:102F3000474E535341563D332C330D0A00000000D9
:102F40004F4B000041542B48545450494E49540DA6
:102F50000A00000041542B48545450504152413D06
:102F600022434944222C310D0A0000004878000811
:102F700041542B48545450414354494F4E3D300D19
:102F80000A00000041542B485454505445524D0DF2
:102F90000A00000041542B46534C533D433A5C55C4
:102FA0007365725C0D0A000041542B43474E534336
:102FB000484B3D332C310D0A0000000041542B4397
:102FC000474E535057523D310D0A000041542B4398
:102FD000474E534149443D33312C312C310D0A00C9
:102FE00041542B43474E53494E460D0A0000000002
:102FF00030B583B00446FDF7B9F905460020CDE9A8
:103000000000024621466846FDF7C8FA2846FDF74B
:10301000B2F9DDE9000103B030BD00002DE9F04157
:10302000054600240027002600BF0BE01348005D82
:103030002C2801D1781CC7B2022F01D1264605E009
:10304000601CC4B20E4800788442EFDB00BF701CE5
:10305000C4B206E00948015DA01B401E2954601C53
:10306000C4B2074800788442F4DB0021A01B401E54
:103070002954FEF70DFDBDE8F0810000D0060020C8
:103080008000002010B5044607A12046FDF726F970
:1030900008B9012010BD06A12046FDF71FF908B9A7
:1030A0000220F7E70020F5E7726561646469720049
:1030B00067657466696C6500F0B5034600200024FE
:1030C00003E01D5C0D54451CE8B21D5C3A2DF8D19F
:1030D000451CE8B207E00546461CF0B25F5D254698
:1030E000661CF4B257551D5C0D2DF4D1F0BD0000E7
:1030F00010B504460FA0FDF793F8642000F076FAAF
:103100004F2221460F48FFF70AFD642000F06EFAB7
:1031100000BF0C48008800F040000028F9D01A20B9
:103120000849091D0880642000F060FAFEF7B0FC31
:1031300010BD000041542B425453505053454E444F
:103140000D0A00000038014070B504460D4600200D
:103150002071401EE0622946204602F083F908B142
:10316000032070BD94F82E1294F82F0241EA00203B
:103170004AF65521884201D00220F2E794F869000E
:10318000010694F8680041EA004194F8670041EABA
:10319000002094F86610084320F07F400D498842D3
:1031A00001D10020DDE794F88500010694F8840041
:1031B00041EA004194F8830041EA002094F882102B
:1031C000084320F07F400349884201D10020C8E72E
:1031D0000120C6E746415400024600E0521C107828
:1031E00010B110788842F9D11078704770B5034655
:1031F0000D46586A021D680A1E68B678B0FBF6F4E0
:1032000000BF02CA09B9002070BD8C4200D202E0A2
:10321000641A121DF5E700BF10682044F4E70000AF
:1032200070B58AB005460E461446142210A105A8B2
:10323000FDF721F8142213A16846FDF71CF820467B
:1032400003F04EF903280FD1142205A91248FFF705
:1032500066FC002011490860284600F04BFC14224F
:1032600069460D48FFF75BFC00200AB070BD000006
:103270000D0A636C6F73652066696C6520737461F9
:1032800072740D0A0D0A636C6F73652066696C6554
:103290002073746F700D0A00004800400000002089
:1032A0000246891E5069801E884201D8002070475E
:1032B0009378906A01FB0300F9E70246123200207E
:1032C00002E00B5C1354401C0D28FADB7047000031
:1032D0002DE9F047064689460D48007808B901F007
:1032E000C3FC0024354685B1A0460CE02F7884EA63
:1032F000070A0AF0FF00074931F8100080EA242489
:103300006D1C08F10108C845F0D32046BDE8F087E0
:1033100090000020320F002070B504460E46314662
:103320002046FFF7D5FF054684F84A50280A84F85E
:103330004B0070BD2DE9F04704468946B9F1000FF6
:1033400006D1E76817B16069B84215D8012713E0C4
:103350004946204601F04CFA0646022E02D20120D0
:10336000BDE8F087701C08B93046F9E76069B042E3
:1033700001D93046F4E74F463D4600BF6D1C6069F9
:10338000A84204D80225BD4201D90020E8E7294619
:10339000204601F02DFA064606B909E0701C08B176
:1033A000012E01D13046DBE7BD42E7D10020D7E74F
:1033B00000BF6FF070422946204602F03DFC804677
:1033C000B8F1000F08D1B9F1000F05D02A464946DF
:1033D000204602F031FC8046B8F1000F0BD1E560C9
:1033E0002069401C78B12069401E2061607940F05E
:1033F0000100607107E0B8F1010F02D14FF0FF301A
:1034000000E0012005462846AAE700002DE9F35F09
:103410000198D0F8009001E009F1010999F8000045
:103420002F28F9D099F800005C28F5D0009886691B
:103430000B222021304602F00BF800252F46AB4628
:103440004FF0080A00BF58460BF1010B19F8004075
:10345000202C03DD2F2C01D05C2C00D153E02E2C2E
:1034600001D057450DD3BAF1080F01D12E2C02D04F
:103470000620BDE8FC9F08274FF00B0AA806050EA2
:10348000E1E7802C01DB45F00305812C20DBFE2CDD
:103490001EDC58460BF1010B19F80080B8F1400F03
:1034A00002DBB8F17E0F05DDB8F1800F06DBB8F165
:1034B000FE0F03DCAAF10100B84201D80620D8E7CC
:1034C00038467F1C345438467F1C06F8008019E0CB
:1034D000214620A0FFF780FE08B10620C9E7412C55
:1034E00004DB5A2C02DC45F0020508E0612C06DB07
:1034F0007A2C04DC45F00105A4F12000C4B2384662
:103500007F1C34549FE700BF09EB0B010198016059
:10351000202C01DC042000E0002004460FB9062026
:10352000A7E73078E52801D105203070BAF1080FFF
:1035300001D1A806050E05F00300012801D144F0D1
:10354000100405F00C00042801D144F00804F472C2
:1035500000208EE7222A2B2C3A3B3C3D3E3F5B5D10
:103560007C7F00004821AA22027044224270162269
:103570008270C1700A1202717047000010B50024F9
:1035800005A10848FCF765FE04464FF47A7000F088
:103590002DF8204610BD00002B425453505044419A
:1035A00054413A00D006002010B56FF00400FFF738
:1035B0009BF80A4800680A49B0FBF1F00949087015
:1035C0000846007800EB4001C1EBC0104FF6FF71D8
:1035D00001EAC0000449088010BD0000640000201A
:1035E00000127A00780000207A0000200146114A7B
:1035F00012884A434FF0E0235A6100229A611A462A
:10360000126942F001021A6100BF4FF0E022106916
:1036100000F001021AB100F48032002AF5D04FF018
:10362000E022126922F001024FF0E0231A61002229
:103630009A6170477A0000202DE9F04104460E4659
:103640000021204600F032F90546EDB9002700BF01
:103650002169206801F006FF054605B113E06069A5
:103660000078E52802D06069007820B9781C074608
:10367000B04201D107E000270121204600F038F8D0
:103680000546002DE4D000BF042D00D107252846B3
:10369000BDE8F0812DE9F04104460021204600F00C
:1036A00005F9054615B12846BDE8F08100BF21693E
:1036B000206801F0D7FE054605B116E06669377847
:1036C0000FB9042511E0F07A00F0080030B90B22A0
:1036D0003046A16901F09CFE00B906E000212046B9
:1036E00000F006F80546002DE1D000BF2846DBE7D4
:1036F0002DE9F04104468846E088461CB0B208B186
:10370000206910B90420BDE8F08106F00F00002800
:103710006CD12069401C2061E06828B920680089CC
:10372000B04263D80420EEE720688078401E00EAAB
:10373000161000285AD1E168206801F059F80546B2
:10374000012D01D80220DEE7681C08B90120DAE764
:1037500020684069A84243D8B8F1000F01D1042085
:10376000D1E7E1682068FFF7E5FD05460DB90720C0
:10377000C9E7012D01D10220C5E7681C08B9012065
:10378000C1E7206802F044FF08B10120BBE72168CF
:1037900001F130004FF40072002101F059FE29467A
:1037A0002068FFF77DFD2168C86200270EE0012038
:1037B00021680871206802F02BFF08B10120A2E700
:1037C0002068C06A401C2168C8627F1C206880781D
:1037D000B842ECD82068C06AC01B2168C86200BF2C
:1037E000E56029462068FFF75BFD2061E6802068E0
:1037F000303006F00F0100EB41106061002082E7DD
:103800002DE9F04704468946042528E0216920680F
:1038100001F028FE054605B124E0D4F8148098F89C
:1038200000600EB904251DE098F80B0000F03F077A
:10383000E52E0DD02E2E0BD00F2F09D027F0200013
:10384000082801D1012000E00020484500D109E00E
:1038500000212046FFF74CFF054605B102E0206934
:103860000028D3D100BF0DB1002020612846BDE85B
:10387000F08770B5044601212046FFF7DDFE0546BE
:1038800095B92169206801F0EDFD054665B9202252
:103890000021606901F0DCFD0B22D4E9050101F093
:1038A000CAFD012021680871284670BD2DE9F0414C
:1038B00004460E46E680A568012D03D020684069C5
:1038C000A84202D80220BDE8F0812DB92068007816
:1038D000032801D12068456A45B920680089B042B3
:1038E00001D80220EFE72068476A1EE02068807850
:1038F0004FEA001812E02946206800F079FF0546DB
:10390000681C08B90120DEE7022D03D32068406956
:10391000A84201D80220D6E7A6EB08064645EAD21F
:1039200029462068FFF7BCFC0746E5600FB9022076
:10393000C9E707EB161020612068303006F00F0150
:1039400000EB411060610020BDE72DE9F04704461F
:103950000D464FF0000900262846FFF749FB0746B1
:1039600003F032F98146484603F08CFC86B284F8B5
:103970004260300A84F84300BDE8F08770B5054620
:1039800075B902F0A3FA044644B102F02EFCFF2000
:1039900002F09EFB02F024FC012070BD2046FCE7F3
:1039A000012400BF00BF0120F7E770B505460E46B1
:1039B0001446F5B936B1012E14D0022E09D0032ECB
:1039C00015D10BE002F016FC08B1002070BD0120FB
:1039D000FCE74FF4007020800020F7E708202080EB
:1039E0000020F3E702F030FA20600020EEE7042028
:1039F000ECE70420EAE72DE9F04106460F46904641
:103A00001D4615B90420BDE8F0818EB9EAB24146E1
:103A1000384602F025FB044644B102F0E6FBFF20E5
:103A200002F056FB02F0DCFB0120ECE70020EAE7A5
:103A3000012400BF00BF0420E5E7014600207047D5
:103A40002DE9F04105460E4617461C4614B90420E0
:103A5000BDE8F08135B9E2B23946304602F0DAFB12
:103A60000020F5E70420F3E72DE9F04704460E4671
:103A70000025A9463046FFF7BBFA074603F0A4F835
:103A800081460949484603F035FC074603F0DEFB52
:103A9000054604F8345F280A6070280CA070280ED0
:103AA000E070343CBDE8F08700007A440EB5012197
:103AB0000846FEF7F3FC00210846FEF771F80120E6
:103AC000019000208DF808000C208DF809000120DD
:103AD0008DF80A0001A8FEF719F806208DF80000FD
:103AE00000208DF8010002208DF802006846FEF7E4
:103AF00003FC0EBD70B50546284600F0E5FA044605
:103B000034B9284603F008F804460CB900202860B0
:103B1000204670BD70B50446204602F0FDFF054604
:103B20000DB900202060284670BD00002DE9F14746
:103B30008BB0554E01220BA904A800F013FC0546DA
:103B4000002D7DD101A80A9004A80B9900F0CEFDAC
:103B5000054605B9082500BF042DF2D100210498BF
:103B6000FFF7E8FB0746002507B90725012F00D11D
:103B70000225781C00B901251DB9049802F048FD02
:103B80000546002D5AD139460498FFF789FB814636
:103B9000049800F130044FF400720021204601F037
:103BA00057FC0B222021204601F052FC2E202070D1
:103BB0001020E072A675310AE175310C2176310EC4
:103BC00061763946204602F04FFC2022214604F15E
:103BD000200001F030FC2E2084F82100DDF818A030
:103BE00004980078032804D10498406A504500D115
:103BF000AA46514604F1200002F036FC049890F8E1
:103C0000028017E00498C0F82C9009F10109012006
:103C100004990871049802F0FBFC054605B10CE01C
:103C20004FF400720021204601F012FCA8F10100BF
:103C300000F0FF08B8F1000FE4D100BF2DB900E09B
:103C40001EE004A8FFF715FE054625B13946049885
:103C500002F09DF814E0099C1020E072A675310A6C
:103C6000E175310C2176310E61763946204602F03D
:103C7000FBFB012004990871049802F065FC0546DD
:103C800028460CB0BDE8F087000069BDF7B582B0EA
:103C900016460398019001A800F085FE0546002D08
:103CA00002DA0B2005B0F0BD0E4850F825400CB1EB
:103CB00000202070029810B1002002990870094974
:103CC000029841F82500029808B1012E01D0002089
:103CD000E8E7002203A902A800F044FB07463846A3
:103CE000E0E700009C0000202DE9F7438AB005467C
:103CF00016461DB909200DB0BDE8F08300202860EC
:103D000006F01F0626F001020BA903A800F02AFB0B
:103D10000746002F7ED1CDF824D003A80B9900F0E0
:103D2000E5FC0746089C0FB904B9062706F01C00FD
:103D3000002850D04FB1042F03D103A8FFF799FDFD
:103D4000074646F00806089C09E0E07A00F01100FA
:103D500008B1072703E006F0040000B10827002F90
:103D600038D106F00800002834D0DFF8E08084F86D
:103D70000E804FEA1821E1734FEA184121744FEA8F
:103D8000186161740020E072207700216177A177CB
:103D9000E1772146039801F067F88146002120462B
:103DA00002F062FB012003990871B9F1000F11D0F4
:103DB0000398D0F82C804946039801F0E8FF0746A5
:103DC00047B9A9F101000399C8604146039801F081
:103DD00049FB07460EE06FB9E07A00F0100008B129
:103DE000042707E006F0020020B1E07A00F00100AD
:103DF00000B1072747B906F0080008B146F02006D1
:103E00000398C06AE8612C6227B9AE710020E8719E
:103E1000214600E017E0039801F026F82861E07FD2
:103E20000106A07F41EA0041607F41EA0020217F36
:103E30000843E8600020A860A861686203982860D1
:103E40002868C088A880384655E70000000069BD92
:103E500033B585B0044614B9092007B030BD00223F
:103E600006A904A800F07EFA05461DBB0498206050
:103E700001A8A0612046069900F038FC0546B5B9B6
:103E8000606958B16069C07A00F0100028B16169BA
:103E9000049800F0E9FFA06000E005253DB9049812
:103EA000C088A08000212046FFF700FD0546042DB4
:103EB00000D105250DB1002020602846CDE72DE971
:103EC000FF4F83B0044615469A46DDF810B0002037
:103ED000CAF80000204602F01FFE0290029818B1B6
:103EE000029807B0BDE8F08FE07908B1E079F8E713
:103EF000A07900F0010008B90720F2E7D4E9021028
:103F0000401A00900098854200D9009DAAE02089BF
:103F1000C0F30800002876D120688078401EA16890
:103F200000EA512000F0FF09B9F1000F1FD1A0688D
:103F300010B9206901900CE0606A28B12046A168A0
:103F4000FFF754F9019004E06169206800F050FC2B
:103F500001900198022802D20220E071C1E7019885
:103F6000401C10B90120E071BBE7019860616169F4
:103F70002068FFF795F9064616B90220E071B0E710
:103F80004E444FEA5528B8F1000F29D009EB08003C
:103F900021688978884203D920688078A0EB0908D5
:103FA00021684878434632465946FFF724FD10B150
:103FB0000120E07195E7A07900F0400068B1A069A8
:103FC000801B404509D2A169891B0BEB41204FF4AE
:103FD000007204F1280101F02EFA4FEA482737E079
:103FE000A069B04220D0A07900F0400080B12168E3
:103FF0004878012304F12801A269FFF721FD18B1D7
:104000000120E0716DE710E0A07920F04000A07180
:10401000216848780123324604F12801FFF7EBFCC0
:1040200010B10120E0715CE7A6612089C0F30800AF
:10403000C0F50077AF4200D92F462089C0F30802AF
:1040400004F1280011183A46584601F0F4F900BF6F
:10405000BB44A0683844A060DAF800003844CAF8CD
:104060000000ED1B002D7FF452AF002039E7FEB5B4
:1040700005460E46284602F04FFD04460CBB2EB9FD
:1040800000212846FFF712FC04461AE0C5F818D0B4
:1040900000212846FFF7B4FB0446042C02D100207F
:1040A000286100246CB93146284600F044FC002108
:1040B0002846FFF71DFB0446042C02D1002028618E
:1040C00000242046FEBD00002DE9F04104462046B4
:1040D00002F022FD0746002F4AD1A07900F020000F
:1040E000002845D0A07900F0400078B121684878D8
:1040F000012304F12801A269FFF7A2FC10B10120FD
:10410000BDE8F081A07920F04000A071E16920684D
:1041100001F0A8F90746002F2AD1256AE87A40F075
:104120002000E872207B2877A089010A6977E0687F
:10413000010CA977E068010EE9772846216902F0B1
:1041400093F90C4EAE75310AE975310C2976310EB2
:1041500069760020A8740021E974A07920F020007D
:10416000A071012021680871206802F0EDF907466E
:104170003846C5E7000069BD2DE9FF4F83B004460E
:1041800015469B46049801900020CBF8000020467D
:1041900002F0C2FC0290029818B1029807B0BDE884
:1041A000F08FE07908B1E079F8E7A07900F002003B
:1041B00008B90720F2E7A0682844A168884200D225
:1041C0000025BEE02089C0F3080000287DD12068CA
:1041D0008078401EA16800EA512000F0FF0ABAF181
:1041E000000F26D1A06838B9276997B90021206847
:1041F000FFF7A0F807460CE0606A28B12046A168E6
:10420000FEF7F4FF074604E061692068FFF792F8C3
:10421000074607B998E0012F02D10220E071BDE7FF
:10422000781C10B90120E071B8E76761206900B916
:104230002761A07900F0400078B121684878012317
:1042400004F12801A269FFF7FBFB10B10120E07126
:10425000A4E7A07920F04000A07161692068FFF711
:104260001FF8064616B90220E07197E756444FEA58
:104270005529B9F1000F2CD00AEB09002168897883
:10428000884203D920688078A0EB0A092168487821
:104290004B4632460199FFF7D3FB10B10120E07184
:1042A0007CE7A069801B48450ED2A069801B019A5B
:1042B00002EB40214FF4007204F1280001F0BBF83A
:1042C000A07920F04000A07100E016E04FEA4928F4
:1042D0002AE0A069B0420FD0D4E9020188420BD293
:1042E000216848780123324604F12801FFF783FB57
:1042F00010B10120E07151E7A6612089C0F30800E8
:10430000C0F50078A84500D9A8462189C1F3080264
:1043100004F1280150184246019901F08CF8A07967
:1043200040F04000A07100BF019840440190A06897
:104330004044A060DBF800004044CBF80000A5EB4F
:104340000805002D7FF43EAF00BFD4E9020188428A
:1043500001D9A068E060A07940F02000A0710020A1
:104360001CE700002DE9F74F88B000210898016094
:10437000099800F018FB07900798002803DA0B2033
:104380000BB0BDE8F08FD549079851F820400CB923
:104390000C20F5E708980460207878B16078FFF782
:1043A0004CFB804608F0010040B90A9820B108F0A3
:1043B000040008B10A20E3E70020E1E700202070B4
:1043C000079860706078FFF7D9FA804608F001001E
:1043D00008B10320D4E70A9820B108F0040008B11E
:1043E0000A20CDE7002739462046FEF7ADFE0546F8
:1043F000012D01D06DBB2CE0002614E004F5F7710F
:1044000001EB0610017951B1C17A0A06817A42EABC
:104410000142417A42EA0121027A114300E000217F
:104420004DF82610761C042EE8D3002606B1761E21
:1044300000BF5DF8267027B139462046FEF784FE9E
:1044400000E0022005461DB1701C06460428F0D38A
:1044500000BF032D01D1012092E70DB10D208FE7A0
:104460003B20015D94F83C0041EA0020B0F5007F5C
:1044700001D00D2084E74620015D94F8470041EA11
:104480000029B9F1000F0ED194F85700010694F8F5
:10449000560041EA004194F8550041EA002094F8A2
:1044A000541040EA0109C4F818904020005DE07003
:1044B000E078012804D0E078022801D00D205FE7E1
:1044C000E07809FB00F93D20005DA070A07818B1EC
:1044D000A078411E084008B10D2051E74120015D40
:1044E00094F8420041EA00202081207A00F00F0079
:1044F00008B10D2044E74320015D94F8440041EAEF
:10450000002BBBF1000F0ED194F85300010694F874
:10451000520041EA004194F8510041EA002094F829
:10452000501040EA010B3E20015D94F83F0041EA43
:1045300000200490049808B90D2021E7049848440D
:10454000218900EB111006900698834501D20D20B9
:1045500016E70698ABEB0000A178B0FBF1FABAF1D0
:10456000000F01D10D200BE7012540F6F6708245C2
:1045700000D302254FF6F670824500D303250AF1D9
:1045800002006061E761049838442062069838446C
:10459000A062032D16D1208908B10D20F0E694F811
:1045A0005F00010694F85E0041EA004194F85D0066
:1045B00041EA002094F85C10084360626069800062
:1045C000059014E0208908B90D20D9E6206A4844F6
:1045D0006062022D02D16069400007E0207D00F09A
:1045E0000100616901EB410100EB51000590A169F7
:1045F000059800F2FF10B1EB502F01D20D20BFE65D
:104600004FF0FF302061E06080206071032D5AD1AF
:1046100094F8601094F8610041EA0020012852D11A
:10462000791C204600F01EFFE8BB0020607194F862
:104630002E1294F82F0241EA00204AF655218842B2
:1046400041D13320005D01063220005D41EA004186
:104650003120005D41EA002094F8301008432049E1
:10466000884230D194F81702010694F8160241EA04
:10467000004194F8150241EA002094F8141208430E
:10468000184988421FD194F81B02010694F81A02B7
:1046900041EA004194F8190241EA002094F8181206
:1046A0000843206100E00EE094F81F02010694F830
:1046B0001E0241EA004194F81D0241EA002094F8EC
:1046C0001C120843E060257007480088401C80B237
:1046D00005490880E080002052E600009C00002090
:1046E0005252614172724161A00000202DE9F341F4
:1046F0000446019800782F2803D0019800785C28A0
:1047000002D10198401C01900020A060019800781F
:10471000202807D200212046FFF7C8F805460020D0
:10472000606128E000BF01A92046FEF76FFE054644
:1047300005B11FE02046FEF7ADFF0546A069C67A29
:104740003DB1042D04D100BF06F0040000B90525D9
:1047500010E006F0040000B10CE06769F87A00F0A0
:10476000100008B9052505E03946206800F07CFBFB
:10477000A060D8E700BF2846BDE8FC8100BF054A1D
:10478000128802F04002002AF9D0C2B2014B1B1D70
:104790001A8070470038014010B51446002222608C
:1047A000114A21F000439342A8BF10BD53EA000212
:1047B00008BF10BDB3F5801FA8BF226807DA3622F4
:1047C00002F03AFF6FF0350221F000432260DFF87B
:1047D0001CC06FF31E510CEB23531A4441F0FF51E0
:1047E00041F00051226010BD0000F07F02FCFFFF8D
:1047F0002DE9F04705460C46022C02D36869A04219
:1048000002D84FF0010969E04FF0FF3928780128FC
:1048100004D002282ED003285CD13FE0274607EBC6
:104820005707286A00EB5721284600F01BFE00B10D
:1048300053E038467F1CC0F3080105F1300010F842
:104840000180286A00EB5721284600F00BFE00B1DA
:1048500043E0C7F3080105F13000405C48EA002856
:1048600004F0010010B14FEA181001E0C8F30B008A
:10487000814632E0286A00EB1421284600F0F2FD60
:1048800000B12AE040F2FF1000EA440105F13000D7
:104890000E183078717840EA01291EE0286A00EB92
:1048A000D411284600F0DEFD00B116E040F2FF1002
:1048B00000EA840105F130000E18F0780006B178A6
:1048C00040EA0140717840EA01203178084320F045
:1048D000704902E04FF0010900BF00BF4846BDE843
:1048E000F08730B5ADF51F7D0446012221466846AC
:1048F000FFF7FAF905466846FFF7E6FBC5B98AAB4C
:104900004F228BA96846FFF7DAFA054609E08AAB21
:104910004F228BA96846FFF7D2FA05468BA8FEF70F
:10492000E7FB8A980028F2D16846FFF7E3F80546CE
:104930000DF51F7D30BDF0B5044601F10902206977
:1049400000282DD06069002310E01E465B1C855DA9
:10495000202D00D10AE0052D00D1E525092B02D13B
:104960002E2602F8016B02F8015B00BF0B2BECD383
:10497000C67A0E72C67F3706867F47EA0647467FAD
:1049800047EA0626077F3E430E60077E467E47EADB
:1049900006268E80877DC67D47EA0626CE8000BF2C
:1049A00000201070F0BD70B502464FF0FF30156862
:1049B000DDB1116800E0491C0D78212D02D30D787E
:1049C0003A2DF8D10D783A2D0ED1146814F8015B08
:1049D000A5F130030A2B06D28C4204D11BB918462C
:1049E0004D1C2946156070BD002000BFFBE700008C
:1049F00030B58DB00446214606A8FFF729FA0546D2
:104A0000CDB9694606A8FFF732FB05460BE00DF16C
:104A10000900FEF76DFB09A0FEF76AFB694606A8D0
:104A2000FFF725FB05469DF809000028EFD106A8F1
:104A3000FFF770F805460DB030BD00000D0A00000C
:104A40002DE9F0478146884616461F46002500247A
:104A500000BF1EA14846FBF7FCFB054645B100BF61
:104A600003E0285D08F80400641CB4F5806FF8DBEF
:104A7000002402E000203055641C802CFADB002565
:104A8000002412A14846FBF7E4FB054635B102E0DD
:104A9000285D3055641C285D2428F9D1002402E0EB
:104AA00000203855641C802CFADB0025002408A166
:104AB0004846FBF7CEFB054635B102E0285D385588
:104AC000641C285D2428F9D1BDE8F0874E4700001A
:104AD0004E5200002DE9F04705460C461746984611
:104AE0004FF0000900260AE01AA12846FBF7B1FBA7
:104AF000054615B90020BDE8F0876D1C761CBE4246
:104B0000F2DBA94699F800002C2803D1002060743C
:104B10000120F0E70120607408E06069401C6061DA
:104B200028782E2801D16069A0616D1C28782C2876
:104B3000F3D1002603E019F80600A055761C606941
:104B4000B042F8DCB8F1010F01D168782074002080
:104B5000D1E700002C000000002102E000224254B6
:104B6000491C1029FADB00220274426182617047FD
:104B700070B5044600252046FEF7F4FC2E49204679
:104B800001F0FBF82D492046FEF797FB2C49204603
:104B900000F060F8012305222A492B48FFF79AFF0D
:104BA0002849204600F058FA2648FFF7D5FF012390
:104BB000032224492448FFF78DFF2249204600F0B4
:104BC000D7F82048FFF7C8FF002309221D491F48D6
:104BD000FFF780FF1B492046FEF746FF1948FFF705
:104BE000BBFF1B4A2146184801F03CFD0023072269
:104BF00014491548FFF76EFF1249204601F050FB9B
:104C000005461048FFF7A8FF002308220D490E486B
:104C1000FFF760FF0B492046FEF797FE0948FFF7B4
:104C20009BFF0849204600F08DFF4A21E01CFEF75B
:104C300073FB284670BD0000050000201500002011
:104C4000250000208C0600208C0500200C0600208A
:104C5000A806002002461F32002002E00B5C13541D
:104C6000401C0D28FADB704730B5002018E0002109
:104C7000024600230DE081EA020404F0010424B19D
:104C80004AF2010484EA610100E0491052105C1C00
:104C9000A3B2082BEFDB054C24F81010441CA0B283
:104CA000FF28E4DD0124024D2C7030BD320F0020BE
:104CB000900000200146CA1701EB92729210A1EBFE
:104CC000820292B9642091FBF0F200FB121050B9FD
:104CD0004FF4C87091FBF0F200FB121008B90120EC
:104CE00070470020FCE70120FAE70020F8E710B544
:104CF00000F02CFF00F08AFF10BD000010B540212D
:104D00000148FDF74AF810BD000C014010B5042021
:104D100000F042F900BF01211248FDF735F80028E4
:104D2000F9D140211048FDF73AF801210D48FDF76F
:104D30002BF8B0B94FF47A70FEF758FC4FF47A7044
:104D4000FEF754FC4FF47A70FEF750FC0121054841
:104D5000FDF71AF828B9012004490870042000F072
:104D60004BF910BD00080140000C01400400002078
:104D70002DE9F04F87B006460D460024374903C998
:104D8000CDE90501354B08330FCB01AF0FC7A24664
:104D9000A346002000908146A869052813D100BFD2
:104DA00003E0285D05A90855641C022CF9DB0024EA
:104DB00004E0A01C285C01A90855641C6869801ED9
:104DC000A042F6DC15E0A869042812D1002403E013
:104DD000285D05A90855641C012CF9DB002404E0BA
:104DE000601C285C01A90855641C6869801EA042EB
:104DF000F6DC05A8FBF720FA824601A8FEF7F8F8D2
:104E0000074601F0E1FE83461549584602F05CF979
:104E10000746504602F056FA8046394602F0F2F84C
:104E200000901049009802F065FA074602F00EFA69
:104E30008146287C532801D1C9F1000906F8309F2A
:104E40004FEA192070704FEA1940B0704FEA1960AC
:104E5000F070303E07B0BDE8F08F000088770008A2
:104E6000000070428096184B10B502468C7ECB7EB7
:104E700044EA03201378032B05D10C7D4B7D44EAD3
:104E8000032340EA034010BD2DE9F04106460C46DD
:104E900040F2FF75174635EA14502BD00022134616
:104EA000304601F0D7FE25D03A463046214602F082
:104EB000C3FB06460C4635EA145010D000221346B8
:104EC000304601F0C7FE15D10220FBF754FAFDF77A
:104ED0003DFE0A46214662F31E01BDE8F081022034
:104EE000FBF749FAFDF72BFE0A46214662F31E0145
:104EF000BDE8F08130462146BDE8F08108B50121CA
:104F00000820FDF7CBFA8020ADF8000010208DF8C6
:104F1000030003208DF8020069460248FCF760FE9A
:104F200008BD0000000C014008B501211020FDF76C
:104F3000B5FA4FF40050ADF8000010208DF80300D2
:104F400003208DF8020069460F48FCF749FE4FF434
:104F50008040ADF8000010208DF8030003208DF88C
:104F6000020069460848FCF73BFE4FF40040ADF8EC
:104F7000000010208DF8030003208DF80200694620
:104F80000148FCF72DFE08BD0010014010B5FFF7E9
:104F9000B5FFFFF7C9FF10BD10B50446012C03DAB9
:104FA000042C01DD012010BD012C06D0022C09D0FB
:104FB000032C0DD0042C17D110E020210C48FCF755
:104FC000EEFE11E04FF400510A48FCF7E8FE0BE05A
:104FD0004FF480410748FCF7E2FE05E04FF4004142
:104FE0000448FCF7DCFE00BF00BF0020DBE7000048
:104FF000000801400010014010B50446012C03DAFE
:10500000042C01DD012010BD012C06D0022C09D09A
:10501000032C0DD0042C17D110E020210C48FCF7F4
:10502000BCFE11E04FF400510A48FCF7B6FE0BE05D
:105030004FF480410748FCF7B0FE05E04FF4004113
:105040000448FCF7AAFE00BF00BF0020DBE7000019
:1050500000080140001001402DE9F04F87B00646DE
:105060000D460024424903C9CDE90501404B0833F0
:105070000FCB01AF0FC7A246A34600200090814688
:10508000A869062813D100BF03E0285D05A90855CB
:10509000641C032CF9DB002404E0E01C285C01A95B
:1050A0000855641C6869C01EA042F6DC2CE0A869A3
:1050B000052813D1002403E0285D05A90855641CC8
:1050C000022CF9DB002404E0A01C285C01A908558F
:1050D000641C6869801EA042F6DC15E0A8690428FB
:1050E00012D1002403E0285D05A90855641C012C99
:1050F000F9DB002404E0601C285C01A90855641C4D
:105100006869401EA042F6DC05A8FBF795F88246C8
:1051100001A8FDF76DFF074601F056FD83461549CE
:10512000584601F0D1FF0746504602F0CBF88046C2
:10513000394601F067FF00900F49009802F0DAF855
:10514000074602F083F88146287C572801D1C9F12F
:10515000000906F82C9F4FEA192070704FEA194099
:10516000B0704FEA1960F0702C3E07B0BDE8F08FC8
:1051700070770008000070428096184BADF59B6D6B
:105180000025002600247FA207CA0DF2CC4307C3E6
:105190007FA103C90DF2C44203C2FEF705FAFFF76F
:1051A000A6FDFFF7F3FEFFF7B1FD4FF4A060FDF79A
:1051B000DBF8FEF77BFC4FF4E13001F0B7FB4FF476
:1051C000E13001F003FC4FF4E13001F055FC00BF89
:1051D00000F07CFE0028FBD101226FA1A5A8FEF7FC
:1051E00055FDFDF7CBF86D480078002871D10822F5
:1051F0000DF2CC416A48FDF792FC322069490876ED
:1052000030216848417600F0DBF9664A6649674814
:1052100000F042F966A0FBF703F84FF47A70FEF74E
:10522000E5F9FCF7BFFDFCF70FFE4FF47A70FEF7CF
:10523000DDF94FF47A70FEF7D9F94FF47A70FEF782
:10524000D5F901215B48FCF7AAFD5B4803465B4AA0
:1052500007A9009014A800F009FC5948594B564A78
:1052600001A900900DA800F001FC52E0564800682A
:1052700002281AD1554B564A56495748FFF7E0FBCA
:10528000002403E0002054490855641C40F20360E8
:105290008442F7D30020514908604B49086001223D
:1052A00040F225514E48FDF77AFB4FF480624949A0
:1052B0003B48FDF734FC4B48FFF75AFC05464A488B
:1052C000006838B92A46374918311BA800F0FEFBA0
:1052D0000DE01FE044480068012808D141491BA89F
:1052E00001F035FC2A4641491BA8FDF799FF4F22E2
:1052F0003C492B48FDF713FC4F223A493C48FDF747
:105300000EFC4FF47A70FEF771F94FF47A70FEF7E5
:105310006DF9ABE721480078012830D108220DF261
:10532000C4411F48FDF7FBFBFCF768FB00BFFCF71F
:10533000FFFA0028FBD021E0FEF720F90646EEB187
:1053400000262C48FDF76AFE2B4A2C492948FDF718
:10535000B3FE2A48FDF796FE012802D0022808D1A4
:1053600003E02548FFF744FB07E02348FFF7B9FABD
:1053700003E023A0FDF7BCFE00BF00BFDCE700BFD9
:10538000FEE7000047534D204D6F646500000000AC
:105390004254204D6F646500303A00000400002044
:1053A00000480040A8060020B8000020CC000020E3
:1053B0002B2B2B00000C0140380000203500002072
:1053C0003F00002049000020880000208C050020BC
:1053D0000C0600208C010020D00800208400002052
:1053E00000440040FC000020000000204C00002091
:1053F000003801404C0100207C0100206C0100209D
:10540000656E746572206572726F720D0A0000001D
:10541000F0B503461C460D46002000BF161EA2F143
:10542000010207D014F8017B15F801CBA7EB0C069D
:10543000301EF3D0F0BD70B503460C4603E014F8FF
:10544000015B03F8015B151EA2F10102F7D170BDEB
:1054500030B5034601E003F8011B141EA2F101025E
:10546000F9D130BD70B504460D460026E06AA84269
:1054700010D0204601F0CCF806465EB960780123D2
:105480002A4604F13001FEF7B6FA10B14FF0FF35AD
:105490000126E562304670BD70B50346002000E08D
:1054A0005B1C1C78222CFBD15B1C002012E01D5CD5
:1054B000841C0D551D5C3E4E35551D5C3D4E3555CD
:1054C0001D5C3D4E35551E5C02F11804851C665569
:1054D000441CE0B20228EADBDB1C002013E01D5C68
:1054E0004C1D25541D5C324E041D35551D5C314E3E
:1054F00035551D5C304E35551E5C02F11804051DF6
:105500006655441CE0B20228E9DB2F24294DAC711A
:10551000294DAC712F259577DB1C002014E01D5C14
:1055200001F1080425541C5C244D2C541D5C214EB3
:10553000C41D35551D5C204E35551E5C02F1180406
:10554000C51D6655441CE0B20228E8DB2F241A4D25
:105550006C722F252124A554DB1C00200AE01D5C61
:1055600001F10B0425541D5C134E00F10A0435555E
:10557000441CE0B20228F2DBDB1C00200AE01D5CC8
:1055800001F10E0425541D5C0B4E00F10C04355541
:10559000441CE0B20228F2DBDB1C002005E01D5CAD
:1055A00001F111042554441CE0B20228F7DB70BD60
:1055B000380000203F0000204C000020490000205F
:1055C00070B500250024D9A0FAF72AFE4FF4FA702E
:1055D000FEF70CF8D5A0FAF723FE4FF4FA70FEF7A9
:1055E00005F8D4A1D448FAF734FE04460DE0FCF7E0
:1055F0004FFACEA0FAF714FE4FF4FA70FDF7F6FF5B
:10560000CCA1CD48FAF725FE0446002CEFD0FCF7DC
:105610003FFACAA0FAF704FE4FF4FA70FDF7E6FF6E
:10562000C9A0FAF7FDFD4FF4FA70FDF7DFFFC9A13D
:10563000C148FAF70EFE04460DE0FCF729FAC2A0B5
:10564000FAF7EEFD4FF4FA70FDF7D0FFC4A1BA48A7
:10565000FAF7FFFD0446002CEFD0FCF719FAC3A0BF
:10566000FAF7DEFD4FF4FA70FDF7C0FFC3A1B248B0
:10567000FAF7EFFD04460DE0FCF70AFABBA0FAF7D3
:10568000CFFD4FF4FA70FDF7B1FFBFA1AA48FAF7BA
:10569000E0FD0446002CEFD0FCF7FAF9BDA0FAF7C4
:1056A000BFFD4FF4FA70FDF7A1FFA2A1A248FAF7DF
:1056B000D0FD04460DE0FCF7EBF9B6A0FAF7B0FD1B
:1056C0004FF4FA70FDF792FF9AA19B48FAF7C1FDDB
:1056D0000446002CEFD0FCF7DBF9B6A0FAF7A0FDEA
:1056E0004FF4FA70FDF782FF92A19348FAF7B1FDEB
:1056F00004460DE0FCF7CCF9AEA0FAF791FD4FF4AB
:10570000FA70FDF773FF8BA18B48FAF7A2FD0446F0
:10571000002CEFD0FCF7BCF9AEA0FAF781FD4FF4F6
:10572000FA70FDF763FF83A18348FAF792FD044600
:105730000DE0FCF7ADF9A7A0FAF772FD4FF4FA708F
:10574000FDF754FF7BA17C48FAF783FD0446002C4B
:10575000EFD0FCF79DF9A3A0FAF762FD4FF4FA70C1
:10576000FDF744FF73A17448FAF773FD04460DE09A
:10577000FCF78EF99BA0FAF753FD4FF4FA70FDF792
:1057800035FF6CA16C48FAF764FD0446002CEFD09D
:10579000FCF77EF997A0FAF743FD4FF4FA70FDF796
:1057A00025FF64A16448FAF754FD04460DE0FCF7B8
:1057B0006FF990A0FAF734FD4FF4FA70FDF716FF79
:1057C0005CA15D48FAF745FD0446002CEFD0FCF7DC
:1057D0005FF98CA0FAF724FD4FF4FA70FDF706FF8D
:1057E00054A15548FAF735FD04460DE0FCF750F991
:1057F00084A0FAF715FD4FF4FA70FDF7F7FE4DA1FE
:105800004D48FAF726FD0446002CEFD0FCF740F98E
:1058100084A0FAF705FD4FF4FA70FDF7E7FE45A105
:105820004548FAF716FD04460DE0FCF731F97DA076
:10583000FAF7F6FC4FF4FA70FDF7D8FE3DA13E48AA
:10584000FAF707FD0446002CEFD0FCF721F978A009
:10585000FAF7E6FC4FF4FA70FDF7C8FE77A1364878
:10586000FAF7F7FC04460DE0FCF712F970A0FAF71E
:10587000D7FC4FF4FA70FDF7B9FE70A12E48FAF785
:10588000E8FC0446002CEFD0FCF702F96DA0FAF713
:10589000C7FC4FF4FA70FDF7A9FE26A12648FAF7D7
:1058A000D8FC04460DE0FCF7F3F866A0FAF7B8FC64
:1058B0004FF4FA70FDF79AFE1EA11F48FAF7C9FCD3
:1058C0000446002CEFD0002461A11B48FAF7C1FC6C
:1058D000044604E0605D60494855681CC5B2605DDF
:1058E0000028F7D1FCF7D4F8FDF79AF95BA0FAF796
:1058F00097FC4FF4FA70FDF779FE0EA10E48FAF707
:10590000A8FC04460DE0FCF7C3F854A0FAF788FCA5
:105910004FF4FA70FDF76AFE06A10748FAF799FC02
:105920000446002CEFD0FCF7B3F870BD41540D0ACB
:10593000000000004F4B0000D006002041542B43D4
:1059400053510D0A000000002041542B435245479B
:105950003F0D0A002B435245473A20302C350000BA
:105960002B435245473A20302C3100002041542B24
:1059700043475245473F0D0A000000002B43475262
:1059800045473A20302C35002B43475245473A20B3
:10599000302C310041542B53415042523D332C3175
:1059A0002C22434F4E54595045222C2247505253DB
:1059B000220D0A0041542B53415042523D332C31A9
:1059C0002C2241504E222C22434D4E4554220D0A8A
:1059D0000000000041542B53415042523D312C31C4
:1059E0000D0A000041542B53415042523D322C319C
:1059F0000D0A000041542B434E54504349443D315D
:105A00000D0A000041542B434E54503D226E7470D9
:105A1000322E616C6979756E2E636F6D222C333274
:105A20000D0A000041542B434E54503F0D0A000014
:105A300041542B434E54500D0A000000434E545025
:105A40003A20310041542B43434C4B3F0D0A000098
:105A50002B43434C4B000000CC00002041542B53FF
:105A6000415042523D302C310D0A00002DE9F047E3
:105A700080460C4615461E46DDF820904FF0000A81
:105A8000002729464046FEF7E3F982462146404674
:105A9000FEF7EDFA82460CE0314604F10900FAF710
:105AA0001DFC08B9012707E021464046FEF7DFFA52
:105AB0008246607A0028EFD100BF012F03D048460C
:105AC000FEF734F882463846BDE8F08770B58AB0F4
:105AD00005460E461446142212A105A8FAF7CBFB80
